:100000000C9434000C9451000C9451000C94510049
:100010000C9451000C9451000C9451000C9451001C
:100020000C9451000C9451000C9451000C9451000C
:100030000C9451000C9451000C9451000C945100FC
:100040000C9451000C9451000C9451000C945100EC
:100050000C9451000C9451000C9451000C945100DC
:100060000C9451000C94510011241FBECFEFD8E026
:10007000DEBFCDBF12E0A0E0B1E0ECE1F0E102C0F4
:1000800005900D92A830B107D9F712E0A8E0B2E0D0
:1000900001C01D92A830B107E1F70E94E0060C9460
:1000A0000C080C940000009711F08FEF01C080E065
:1000B00087BD18BC1092B3000895FC01808187BDF4
:1000C000828188BD84818093B3000895BC0180E063
:1000D00090E00E94730420E030E040E05BE30E9487
:1000E000F00220E030E44FE354E40E94F0020E946A
:1000F00090070E940301CB010895CF92DF92EF9207
:10010000FF920F931F93CF93DF936B010E946600C2
:100110009C01C0E0D0E0E0E0F0E04FEFE42EF12CF5
:10012000C901B7010E9445078B016115710539F0BE
:10013000CFEFD0E06130710511F0EFEFF0E0C901D1
:10014000B7010E9445079C010115110549F7CF0130
:10015000209719F0309751F403C0309781F004C014
:1001600021153105F1F0F90120E030E0CE1BDF0B65
:10017000CF012115310529F0821B930B02C0E90143
:1001800010C0F601D583C483938382833183208397
:10019000DF91CF911F910F91FF90EF90DF90CF9063
:1001A000089520E030E0EDCFEF92FF920F931F9380
:1001B000CF93DF938C01C1E0D0E051E0E52EF12C2C
:1001C00082E0C030D80718F0EE24EA94FE2CCE0D61
:1001D000DF1D209789F0CE01B8010E947D00F80153
:1001E000808187BD828188BD84818093B300F7E2DE
:1001F000FA95F1F70000E4CFDF91CF911F910F91B5
:10020000FF90EF900895CF92DF92EF92FF920F93BD
:100210001F936B017C0120E030E040E05FE40E942E
:10022000F10387FD11C0C701B60120E030E040E0D6
:100230005FE40E94B8020E9422048B019C010050DE
:1002400010402040304806C0C701B6010E94220479
:100250008B019C01B801C9011F910F91FF90EF9094
:10026000DF90CF900895A0E0B0E0E9E3F1E00C94D6
:100270005B07EC014B01FA018881823008F43EC132
:10028000DB019C91923008F436C1843059F49430EB
:1002900009F034C1998111968C911197981709F042
:1002A00027C12CC1943009F426C19230A9F48230C0
:1002B00009F024C1CE0128E0DC010D90CD01DA0166
:1002C0000D92AD012150C1F7D40111968C91119777
:1002D00099818923818311C1823009F40CC1AA80DC
:1002E000BB80DB0112964D915C911397CC80DD8031
:1002F000EE80FF8014960D911D912D913C911797E2
:10030000C501841B950BDC0197FF04C0AA27BB27FE
:10031000A81BB90BA032B1050CF067C0181619065E
:1003200084F5280139010A2E04C076946794579405
:1003300047940A94D2F741E050E060E070E004C0D6
:10034000440F551F661F771FAA95D2F741505040A2
:1003500060407040402351236223732381E090E08A
:10036000A0E0B0E0411551056105710519F480E088
:1003700090E0DC018C019D010429152926293729EB
:100380003FC00097E9F1AA0EBB1E260137010A2ED5
:1003900004C076946794579447940A94D2F741E046
:1003A00050E060E070E004C0440F551F661F771FE7
:1003B000AA95D2F741505040604070404C215D21D9
:1003C0006E217F2181E090E0A0E0B0E04115510571
:1003D0006105710519F480E090E0DC016C017D019C
:1003E000C428D528E628F7280BC04A155B0524F455
:1003F00000E010E0980104C05A01CC24DD2476010D
:100400008981D40111969C911197891709F445C0EF
:10041000882329F00C191D092E093F0908C0D701AE
:10042000C601801B910BA20BB30B8C019D0137FD04
:1004300004C01182B382A2820BC081E08183B382A7
:10044000A28230952095109501951F4F2F4F3F4F59
:1004500004831583268337830DC0880F991FAA1F35
:10046000BB1F84839583A683B78382819381019781
:100470009383828384819581A681B781AC01BD017C
:1004800041505040604070404F3F2FEF52072FEFD8
:1004900062072FE3720708F30BC08183B382A28245
:1004A0000C0D1D1D2E1D3F1D0483158326833783D0
:1004B00083E08083448155816681778177FF1DC009
:1004C000DB01CA0181709070A070B070769567955D
:1004D00057954795842B952BA62BB72B8483958313
:1004E000A683B7838281938101969383828305C01B
:1004F000C0E0D1E003C0E40101C0EF01CE01CDB7FF
:10050000DEB7E0E10C947707A0E2B0E0EAE8F2E0C1
:100510000C946907DC01CB018D839E83AF83B88780
:1005200029833A834B835C83CE010596BE01675EC7
:100530007F4F0E941A06CE010196BE016F5E7F4F6B
:100540000E941A06CE014996BE016F5E7F4FAE0132
:10055000475F5F4F0E9433010E944305462F572F8C
:10056000682F792FCB01BA01A096E2E00C948507A1
:10057000A0E2B0E0EEEBF2E00C946907DC01CB0105
:100580008D839E83AF83B88729833A834B835C83B3
:10059000CE010596BE01675E7F4F0E941A06CE010E
:1005A0000196BE016F5E7F4F0E941A068A8991E014
:1005B00089278A8BCE014996BE016F5E7F4FAE01BF
:1005C000475F5F4F0E9433010E944305462F572F1C
:1005D000682F792FCB01BA01A096E2E00C94850731
:1005E000A0E2B0E0E6EFF2E00C945B07DC01CB01A7
:1005F0008D839E83AF83B88729833A834B835C8343
:10060000CE010596BE01675E7F4F0E941A06CE019D
:100610000196BE016F5E7F4F0E941A06998D92303F
:1006200078F089898230C0F0943019F4823041F436
:10063000CAC0843019F4923079F4C5C0923051F4B4
:1006400081E02A8D9A89291709F480E08A8FCE01EA
:100650004996BBC0823051F481E02A8D9A892917CE
:1006600009F480E08A8BCE014196AFC04D8C5E8C40
:100670006F8C78A00D891E892F89388DE0E2F0E01B
:1006800040E050E0BA01882499245401CC24DD24B0
:100690007601C201817090700097D1F0C00ED11E1A
:1006A000E21EF31EDB01CA01880D991DAA1DBB1DA8
:1006B00041E050E060E070E0C016D106E206F306CB
:1006C00018F040E050E0BA01480F591F6A1F7B1F25
:1006D000880C991CAA1CBB1C37FF08C081E090E065
:1006E000A0E0B0E0882A992AAA2ABB2A000F111F8D
:1006F000221F331F7694679457944794319749F695
:100700008B8D9C8D2B893C89820F931F02969C8731
:100710008B8781E02A8D9A89291709F480E08A87DE
:100720002B853C8517C0CA0181709070009761F0DD
:10073000F694E794D794C79480E090E0A0E0B0E806
:10074000C82AD92AEA2AFB2A7695679557954795AC
:100750002F5F3F4F77FDE7CFC9010BC0440F551FF7
:10076000661F771FF7FC4160CC0CDD1CEE1CFF1CE4
:1007700001974030A0E05A07A0E06A07A0E47A079A
:1007800068F38B879C87DB01CA018F779070A0701C
:10079000B07080349105A105B10561F447FD0AC030
:1007A000C114D104E104F10429F0405C5F4F6F4FA4
:1007B0007F4F40784D875E876F87788B83E089878E
:1007C000CE01099602C080E091E00E944305462FC9
:1007D000572F682F792FCB01BA01A096E0E10C9436
:1007E0007707A8E1B0E0E7EFF3E00C946907DC01DC
:1007F000CB018D839E83AF83B88729833A834B8354
:100800005C83CE010596BE016F5E7F4F0E941A0683
:10081000CE010196BE01675F7F4F0E941A0689894B
:10082000823058F08985823040F0CE014196BE0179
:10083000675F7F4F0E94830601C08FEF6896E2E0FA
:100840000C948507ACE0B0E0E8E2F4E00C946707B4
:10085000DC01CB0189839A83AB83BC83CE010196F3
:10086000BE016B5F7F4F0E941A068D81823069F155
:10087000823058F1843039F02F81388537FD25C01A
:100880002F31310544F08E81882319F100E010E00A
:1008900020E030E822C08EE190E0821B930B0985B6
:1008A0001A852B853C8504C03695279517950795A5
:1008B0008A95D2F78E81882381F030952095109506
:1008C00001951F4F2F4F3F4F08C000E010E09801E7
:1008D00004C00FEF1FEF2FEF3FE7B801C9012C96BF
:1008E000E4E00C948307A8E0B0E0E9E7F4E00C94BE
:1008F00063076B017C011A82611571058105910501
:1009000019F482E089835EC083E089830EE110E000
:100910001C830B83CD82DE82EF82F886C701B6018D
:100920000E94F0049C012150304037FF38C0EE2770
:10093000FF27E21BF30B81E090E0A0E0B0E00E2E79
:1009400004C0880F991FAA1FBB1F0A94D2F70197F2
:10095000A109B1098C219D21AE21BF2141E050E0C8
:1009600060E070E00097A105B10519F440E050E0A7
:10097000BA0104C0F694E794D794C794EA95D2F7E5
:10098000C42AD52AE62AF72ACD82DE82EF82F886AB
:100990008EE190E0821B930B9C838B8313C0211507
:1009A000310581F0022E04C0CC0CDD1CEE1CFF1CB6
:1009B0000A94D2F7CD82DE82EF82F886021B130BF7
:1009C0001C830B83CE0101960E944305462F572FAF
:1009D000682F792FCB01BA012896E8E00C947F07A5
:1009E000CF92DF92EF92FF920F931F938B019C01A6
:1009F000003080E0180781E0280780E0380750F4D5
:100A00000F3F11052105310509F088F480E090E0E1
:100A1000DC0116C00030E0E01E07E0E02E07E1E058
:100A20003E0750F480E190E0A0E0B0E009C088E02B
:100A300090E0A0E0B0E004C088E190E0A0E0B0E089
:100A400040E250E060E070E0481B590B6A0B7B0B02
:100A50006801790104C0F694E794D794C7948A9505
:100A6000D2F7D701C601885F9E4FFC018081481BE9
:100A7000510961097109CA011F910F91FF90EF900F
:100A8000DF90CF900895CF92DF92EF92FF920F9375
:100A90001F93DC0114964D915D916D917C91179798
:100AA0001196EC9111978C91823020F460618FEF58
:100AB00090E0A5C0843009F49DC0823009F494C050
:100AC000411551056105710509F491C012968D918A
:100AD0009C9113972FEF823892070CF059C022E8AF
:100AE0003FEF281B390B2A31310564F56A017B0180
:100AF000022E04C0F694E794D794C7940A94D2F7D0
:100B000081E090E0A0E0B0E004C0880F991FAA1F28
:100B1000BB1F2A95D2F70197A109B1098423952318
:100B2000A623B72341E050E060E070E00097A10504
:100B3000B10519F440E050E0BA014C295D296E2955
:100B40007F2903C040E050E0BA01DB01CA018F7782
:100B50009070A070B07080349105A105B10539F492
:100B600047FF09C0405C5F4F6F4F7F4F04C0415C3F
:100B70005F4F6F4F7F4F81E090E0403020E05207A1
:100B800020E0620720E4720738F580E090E024C09E
:100B9000803891057CF58A019B010F7710702070D9
:100BA0003070003411052105310539F447FF09C0C3
:100BB000405C5F4F6F4F7F4F04C0415C5F4F6F4F92
:100BC0007F4F77FD03C081589F4F06C0769567958C
:100BD0005795479580589F4F97E07695679557951D
:100BE00047959A95D1F70BC080E090E005C080E072
:100BF00090E005C08FEF90E040E050E0BA01982F00
:100C0000979599279795A62FAF77E795EE27E795C4
:100C100086953A2F392B282F2E2B842F952FA32FF3
:100C2000B22FBC01CD011F910F91FF90EF90DF908B
:100C3000CF900895DC01FB014C9111965C911197C6
:100C400012968C911297682F6F7770E0982F991FEA
:100C50009927991F13962C911397822F880F892B10
:100C600090E0221F2227221F2183009739F541158A
:100C700051056105710511F482E029C082E89FEFFA
:100C80009383828327E0440F551F661F771F2A95A1
:100C9000D1F783E0808309C0440F551F661F771F7B
:100CA00082819381019793838283403080E058074B
:100CB00080E0680780E4780778F320C08F3F9105D3
:100CC00079F4411551056105710519F484E08083BB
:100CD000089564FF03C081E0808310C010820EC0BD
:100CE0008F5790409383828383E0808387E0440F13
:100CF000551F661F771F8A95D1F77064448355830B
:100D0000668377830895CF93FC01DB019081923055
:100D100008F44CC08C91823008F448C0943069F4D7
:100D20002181843039F411968C91119790E0821BC7
:100D3000910944C02223D1F13FC0843021F0923088
:100D400041F48230B1F111968C9111978823A1F171
:100D50002DC0C181823001F111968C911197C81775
:100D6000D9F48281938112962D913C911397281783
:100D7000390794F082179307BCF04481558166814E
:100D8000778114968D919D910D90BC91A02D841723
:100D90009507A607B70718F4CC2341F00DC04817F4
:100DA00059076A077B0728F4CC2331F081E090E0F3
:100DB00005C080E090E002C08FEF9FEFCF910895D3
:100DC000CF93DF9300D000D000D0CDB7DEB788E05E
:100DD00084B980E68AB993EA94BD81E085BD909399
:100DE000B0008093B10080917A00876080937A0090
:100DF00080917C00806480937C0080917C008F7760
:100E000080937C0080917B00887F80937B00809121
:100E10007A00806280937A0080917A008068809363
:100E20007A0080917A00806480937A001A82198215
:100E30001C821B821E821D828E010F5F1F4FC80104
:100E40000E94D40061E0E62EF12C71E0C72ED12C77
:100E5000809178009091790021E08B3F920754F4C3
:100E6000B8010E947D00C8010E945D008BE38A9555
:100E7000F1F7EECFEC24FD24C7010E94530089E96D
:100E800099E30197F1F700C0E3CFAA1BBB1B51E127
:100E900007C0AA1FBB1FA617B70710F0A61BB70BEA
:100EA000881F991F5A95A9F780959095BC01CD018F
:100EB00008952F923F924F925F926F927F928F92FE
:100EC0009F92AF92BF92CF92DF92EF92FF920F93D9
:100ED0001F93CF93DF93CDB7DEB7CA1BDB0B0FB6E3
:100EE000F894DEBF0FBECDBF09942A8839884888A0
:100EF0005F846E847D848C849B84AA84B984C88436
:100F0000DF80EE80FD800C811B81AA81B981CE0F2C
:100F1000D11D0FB6F894DEBF0FBECDBFED01089511
:100F20003BD080F09F3740F491110EF04DC060E04F
:100F300070E080E89FEB089526F41B16611D711D7B
:100F4000811D01C01BC0882371F4772321F09850C4
:100F5000872B762F07C0662311F499270DC0905177
:100F6000862B70E060E02AF09A95660F771F881F45
:100F7000DAF7880F9695879597F908959F3F31F096
:100F8000915020F4879577956795B795880F911DB7
:100F90009695879597F9089525D0A0F0BEE7B917E3
:100FA00088F4BB279F3860F41616B11D672F782F81
:100FB0008827985FF7CF869577956795B11D9395AC
:100FC0009639C8F30895E894BB2766277727CB01A5
:100FD00097F9089557FD9058440F551F59F05F3FFA
:100FE00071F04795880F97FB991F61F09F3F79F04B
:100FF00087950895121613061406551FF2CF4695CD
:10100000F1DF08C0161617061806991FF1CF86954E
:0C1010007105610508940895F894FFCF65
:10101C0000000000000000000001020203030303B3
:10102C00040404040404040405050505050505056C
:10103C00050505050505050506060606060606064C
:10104C000606060606060606060606060606060634
:10105C00060606060606060607070707070707071C
:10106C000707070707070707070707070707070704
:10107C0007070707070707070707070707070707F4
:10108C0007070707070707070707070707070707E4
:10109C0007070707070707070808080808080808CC
:1010AC0008080808080808080808080808080808B4
:1010BC0008080808080808080808080808080808A4
:1010CC000808080808080808080808080808080894
:1010DC000808080808080808080808080808080884
:1010EC000808080808080808080808080808080874
:1010FC000808080808080808080808080808080864
:10110C000808080808080808080808080808080853
:08111C0008080808080808088B
:00000001FF
